{
  "contractName": "ChronosCore",
  "abi": [
    {
      "constant": true,
      "inputs": [],
      "name": "totalPayments",
      "outputs": [
        {
          "name": "",
          "type": "uint256"
        }
      ],
      "payable": false,
      "stateMutability": "view",
      "type": "function"
    },
    {
      "constant": true,
      "inputs": [],
      "name": "cfoAddress",
      "outputs": [
        {
          "name": "",
          "type": "address"
        }
      ],
      "payable": false,
      "stateMutability": "view",
      "type": "function"
    },
    {
      "constant": true,
      "inputs": [],
      "name": "nextNumberOfWagersToFinalTimeout",
      "outputs": [
        {
          "name": "",
          "type": "uint256"
        }
      ],
      "payable": false,
      "stateMutability": "view",
      "type": "function"
    },
    {
      "constant": false,
      "inputs": [
        {
          "name": "token",
          "type": "address"
        }
      ],
      "name": "reclaimToken",
      "outputs": [],
      "payable": false,
      "stateMutability": "nonpayable",
      "type": "function"
    },
    {
      "constant": true,
      "inputs": [],
      "name": "wagerIndex",
      "outputs": [
        {
          "name": "",
          "type": "uint256"
        }
      ],
      "payable": false,
      "stateMutability": "view",
      "type": "function"
    },
    {
      "constant": false,
      "inputs": [
        {
          "name": "_nextPoolPercentage",
          "type": "uint256"
        }
      ],
      "name": "setNextPoolPercentage",
      "outputs": [],
      "payable": false,
      "stateMutability": "nonpayable",
      "type": "function"
    },
    {
      "constant": true,
      "inputs": [],
      "name": "nextPoolPercentage",
      "outputs": [
        {
          "name": "",
          "type": "uint256"
        }
      ],
      "payable": false,
      "stateMutability": "view",
      "type": "function"
    },
    {
      "constant": false,
      "inputs": [],
      "name": "unpause",
      "outputs": [],
      "payable": false,
      "stateMutability": "nonpayable",
      "type": "function"
    },
    {
      "constant": true,
      "inputs": [],
      "name": "wagerPool",
      "outputs": [
        {
          "name": "",
          "type": "uint256"
        }
      ],
      "payable": false,
      "stateMutability": "view",
      "type": "function"
    },
    {
      "constant": true,
      "inputs": [],
      "name": "nextFinalTimeout",
      "outputs": [
        {
          "name": "",
          "type": "uint256"
        }
      ],
      "payable": false,
      "stateMutability": "view",
      "type": "function"
    },
    {
      "constant": false,
      "inputs": [
        {
          "name": "_newCFO",
          "type": "address"
        }
      ],
      "name": "setCFO",
      "outputs": [],
      "payable": false,
      "stateMutability": "nonpayable",
      "type": "function"
    },
    {
      "constant": false,
      "inputs": [],
      "name": "claimOwnership",
      "outputs": [],
      "payable": false,
      "stateMutability": "nonpayable",
      "type": "function"
    },
    {
      "constant": true,
      "inputs": [],
      "name": "gameIndex",
      "outputs": [
        {
          "name": "",
          "type": "uint256"
        }
      ],
      "payable": false,
      "stateMutability": "view",
      "type": "function"
    },
    {
      "constant": true,
      "inputs": [],
      "name": "paused",
      "outputs": [
        {
          "name": "",
          "type": "bool"
        }
      ],
      "payable": false,
      "stateMutability": "view",
      "type": "function"
    },
    {
      "constant": true,
      "inputs": [],
      "name": "gameStarted",
      "outputs": [
        {
          "name": "",
          "type": "bool"
        }
      ],
      "payable": false,
      "stateMutability": "view",
      "type": "function"
    },
    {
      "constant": false,
      "inputs": [],
      "name": "withdrawPayments",
      "outputs": [],
      "payable": false,
      "stateMutability": "nonpayable",
      "type": "function"
    },
    {
      "constant": true,
      "inputs": [],
      "name": "nextPrizePool",
      "outputs": [
        {
          "name": "",
          "type": "uint256"
        }
      ],
      "payable": false,
      "stateMutability": "view",
      "type": "function"
    },
    {
      "constant": true,
      "inputs": [],
      "name": "timeout",
      "outputs": [
        {
          "name": "",
          "type": "uint256"
        }
      ],
      "payable": false,
      "stateMutability": "view",
      "type": "function"
    },
    {
      "constant": true,
      "inputs": [],
      "name": "prizePool",
      "outputs": [
        {
          "name": "",
          "type": "uint256"
        }
      ],
      "payable": false,
      "stateMutability": "view",
      "type": "function"
    },
    {
      "constant": false,
      "inputs": [],
      "name": "pause",
      "outputs": [],
      "payable": false,
      "stateMutability": "nonpayable",
      "type": "function"
    },
    {
      "constant": true,
      "inputs": [],
      "name": "owner",
      "outputs": [
        {
          "name": "",
          "type": "address"
        }
      ],
      "payable": false,
      "stateMutability": "view",
      "type": "function"
    },
    {
      "constant": true,
      "inputs": [],
      "name": "nthWagerPrizeN",
      "outputs": [
        {
          "name": "",
          "type": "uint256"
        }
      ],
      "payable": false,
      "stateMutability": "view",
      "type": "function"
    },
    {
      "constant": true,
      "inputs": [],
      "name": "lastWagerTimeoutTimestamp",
      "outputs": [
        {
          "name": "",
          "type": "uint256"
        }
      ],
      "payable": false,
      "stateMutability": "view",
      "type": "function"
    },
    {
      "constant": true,
      "inputs": [],
      "name": "nextTimeout",
      "outputs": [
        {
          "name": "",
          "type": "uint256"
        }
      ],
      "payable": false,
      "stateMutability": "view",
      "type": "function"
    },
    {
      "constant": true,
      "inputs": [],
      "name": "feePercentage",
      "outputs": [
        {
          "name": "",
          "type": "uint256"
        }
      ],
      "payable": false,
      "stateMutability": "view",
      "type": "function"
    },
    {
      "constant": true,
      "inputs": [],
      "name": "price",
      "outputs": [
        {
          "name": "",
          "type": "uint256"
        }
      ],
      "payable": false,
      "stateMutability": "view",
      "type": "function"
    },
    {
      "constant": false,
      "inputs": [
        {
          "name": "_feePercentage",
          "type": "uint256"
        }
      ],
      "name": "setFeePercentage",
      "outputs": [],
      "payable": false,
      "stateMutability": "nonpayable",
      "type": "function"
    },
    {
      "constant": true,
      "inputs": [],
      "name": "finalTimeout",
      "outputs": [
        {
          "name": "",
          "type": "uint256"
        }
      ],
      "payable": false,
      "stateMutability": "view",
      "type": "function"
    },
    {
      "constant": true,
      "inputs": [],
      "name": "numberOfWagersToFinalTimeout",
      "outputs": [
        {
          "name": "",
          "type": "uint256"
        }
      ],
      "payable": false,
      "stateMutability": "view",
      "type": "function"
    },
    {
      "constant": true,
      "inputs": [],
      "name": "calculateTimeout",
      "outputs": [
        {
          "name": "",
          "type": "uint256"
        }
      ],
      "payable": false,
      "stateMutability": "view",
      "type": "function"
    },
    {
      "constant": true,
      "inputs": [
        {
          "name": "",
          "type": "address"
        }
      ],
      "name": "payments",
      "outputs": [
        {
          "name": "",
          "type": "uint256"
        }
      ],
      "payable": false,
      "stateMutability": "view",
      "type": "function"
    },
    {
      "constant": true,
      "inputs": [],
      "name": "pendingOwner",
      "outputs": [
        {
          "name": "",
          "type": "address"
        }
      ],
      "payable": false,
      "stateMutability": "view",
      "type": "function"
    },
    {
      "constant": true,
      "inputs": [],
      "name": "lastPlayer",
      "outputs": [
        {
          "name": "",
          "type": "address"
        }
      ],
      "payable": false,
      "stateMutability": "view",
      "type": "function"
    },
    {
      "constant": true,
      "inputs": [],
      "name": "canStart",
      "outputs": [
        {
          "name": "",
          "type": "bool"
        }
      ],
      "payable": false,
      "stateMutability": "view",
      "type": "function"
    },
    {
      "constant": false,
      "inputs": [],
      "name": "withdrawFreeBalance",
      "outputs": [],
      "payable": false,
      "stateMutability": "nonpayable",
      "type": "function"
    },
    {
      "constant": true,
      "inputs": [],
      "name": "nextPrice",
      "outputs": [
        {
          "name": "",
          "type": "uint256"
        }
      ],
      "payable": false,
      "stateMutability": "view",
      "type": "function"
    },
    {
      "constant": false,
      "inputs": [
        {
          "name": "newOwner",
          "type": "address"
        }
      ],
      "name": "transferOwnership",
      "outputs": [],
      "payable": false,
      "stateMutability": "nonpayable",
      "type": "function"
    },
    {
      "constant": true,
      "inputs": [
        {
          "name": "",
          "type": "uint256"
        }
      ],
      "name": "activeTimesTo",
      "outputs": [
        {
          "name": "",
          "type": "uint256"
        }
      ],
      "payable": false,
      "stateMutability": "view",
      "type": "function"
    },
    {
      "constant": true,
      "inputs": [
        {
          "name": "",
          "type": "uint256"
        }
      ],
      "name": "activeTimesFrom",
      "outputs": [
        {
          "name": "",
          "type": "uint256"
        }
      ],
      "payable": false,
      "stateMutability": "view",
      "type": "function"
    },
    {
      "inputs": [
        {
          "name": "_price",
          "type": "uint256"
        },
        {
          "name": "_timeout",
          "type": "uint256"
        },
        {
          "name": "_finalTimeout",
          "type": "uint256"
        },
        {
          "name": "_numberOfWagersToFinalTimeout",
          "type": "uint256"
        }
      ],
      "payable": false,
      "stateMutability": "nonpayable",
      "type": "constructor"
    },
    {
      "anonymous": false,
      "inputs": [
        {
          "indexed": false,
          "name": "from",
          "type": "uint256[]"
        },
        {
          "indexed": false,
          "name": "to",
          "type": "uint256[]"
        }
      ],
      "name": "ActiveTimes",
      "type": "event"
    },
    {
      "anonymous": false,
      "inputs": [
        {
          "indexed": false,
          "name": "price",
          "type": "uint256"
        },
        {
          "indexed": false,
          "name": "timeout",
          "type": "uint256"
        },
        {
          "indexed": false,
          "name": "finalTimeout",
          "type": "uint256"
        },
        {
          "indexed": false,
          "name": "numberOfWagersToFinalTimeout",
          "type": "uint256"
        }
      ],
      "name": "NextGame",
      "type": "event"
    },
    {
      "anonymous": false,
      "inputs": [
        {
          "indexed": true,
          "name": "gameIndex",
          "type": "uint256"
        },
        {
          "indexed": true,
          "name": "starter",
          "type": "address"
        },
        {
          "indexed": false,
          "name": "timestamp",
          "type": "uint256"
        },
        {
          "indexed": false,
          "name": "price",
          "type": "uint256"
        },
        {
          "indexed": false,
          "name": "timeout",
          "type": "uint256"
        },
        {
          "indexed": false,
          "name": "finalTimeout",
          "type": "uint256"
        },
        {
          "indexed": false,
          "name": "numberOfWagersToFinalTimeout",
          "type": "uint256"
        }
      ],
      "name": "Start",
      "type": "event"
    },
    {
      "anonymous": false,
      "inputs": [
        {
          "indexed": true,
          "name": "gameIndex",
          "type": "uint256"
        },
        {
          "indexed": false,
          "name": "wagerIndex",
          "type": "uint256"
        },
        {
          "indexed": true,
          "name": "winner",
          "type": "address"
        },
        {
          "indexed": false,
          "name": "timestamp",
          "type": "uint256"
        },
        {
          "indexed": false,
          "name": "prize",
          "type": "uint256"
        },
        {
          "indexed": false,
          "name": "nextPrizePool",
          "type": "uint256"
        }
      ],
      "name": "End",
      "type": "event"
    },
    {
      "anonymous": false,
      "inputs": [
        {
          "indexed": true,
          "name": "gameIndex",
          "type": "uint256"
        },
        {
          "indexed": true,
          "name": "wagerIndex",
          "type": "uint256"
        },
        {
          "indexed": true,
          "name": "player",
          "type": "address"
        },
        {
          "indexed": false,
          "name": "timestamp",
          "type": "uint256"
        },
        {
          "indexed": false,
          "name": "timeoutTimestamp",
          "type": "uint256"
        },
        {
          "indexed": false,
          "name": "newPrizePool",
          "type": "uint256"
        },
        {
          "indexed": false,
          "name": "nextPrizePool",
          "type": "uint256"
        }
      ],
      "name": "Play",
      "type": "event"
    },
    {
      "anonymous": false,
      "inputs": [
        {
          "indexed": true,
          "name": "gameIndex",
          "type": "uint256"
        },
        {
          "indexed": true,
          "name": "spicer",
          "type": "address"
        },
        {
          "indexed": false,
          "name": "spiceAdded",
          "type": "uint256"
        },
        {
          "indexed": false,
          "name": "message",
          "type": "string"
        },
        {
          "indexed": false,
          "name": "newPrizePool",
          "type": "uint256"
        }
      ],
      "name": "SpiceUpPrizePool",
      "type": "event"
    },
    {
      "anonymous": false,
      "inputs": [],
      "name": "Pause",
      "type": "event"
    },
    {
      "anonymous": false,
      "inputs": [],
      "name": "Unpause",
      "type": "event"
    },
    {
      "anonymous": false,
      "inputs": [
        {
          "indexed": true,
          "name": "previousOwner",
          "type": "address"
        },
        {
          "indexed": true,
          "name": "newOwner",
          "type": "address"
        }
      ],
      "name": "OwnershipTransferred",
      "type": "event"
    },
    {
      "constant": false,
      "inputs": [
        {
          "name": "_gameIndex",
          "type": "uint256"
        },
        {
          "name": "startNewGameIfIdle",
          "type": "bool"
        }
      ],
      "name": "play",
      "outputs": [],
      "payable": true,
      "stateMutability": "payable",
      "type": "function"
    },
    {
      "constant": false,
      "inputs": [
        {
          "name": "_gameIndex",
          "type": "uint256"
        },
        {
          "name": "message",
          "type": "string"
        }
      ],
      "name": "spiceUp",
      "outputs": [],
      "payable": true,
      "stateMutability": "payable",
      "type": "function"
    },
    {
      "constant": false,
      "inputs": [
        {
          "name": "_price",
          "type": "uint256"
        },
        {
          "name": "_timeout",
          "type": "uint256"
        },
        {
          "name": "_finalTimeout",
          "type": "uint256"
        },
        {
          "name": "_numberOfWagersToFinalTimeout",
          "type": "uint256"
        }
      ],
      "name": "setNextGame",
      "outputs": [],
      "payable": false,
      "stateMutability": "nonpayable",
      "type": "function"
    },
    {
      "constant": false,
      "inputs": [],
      "name": "endGame",
      "outputs": [],
      "payable": false,
      "stateMutability": "nonpayable",
      "type": "function"
    },
    {
      "constant": false,
      "inputs": [
        {
          "name": "_from",
          "type": "uint256[]"
        },
        {
          "name": "_to",
          "type": "uint256[]"
        }
      ],
      "name": "setActiveTimes",
      "outputs": [],
      "payable": false,
      "stateMutability": "nonpayable",
      "type": "function"
    }
  ],
  "bytecode": "0x60606040526001805460a060020a60ff02191690556000600d819055600e556003600f556109c4601255611d4c60135534156200003b57600080fd5b604051608080620017968339810160405280805191906020018051919060200180519190602001805160008054600160a060020a033316600160a060020a0319918216811790925560028054909116909117905560158690556008859055600a849055600c81905591507ff70cb6ba9f9de2c7567ba0cec0016cf690a60fed939a2b665107a64df8c6006f9050848484846040518085815260200184815260200183815260200182815260200194505050505060405180910390a160038054600181016200010a838262000207565b50600091825260208220015560048054600181016200012a838262000207565b506000918252602090912062093a809101557f72066b1b43a035f4d74a4b5d7edd8c642cddafd0b643c4b0a02e116ea74568b7600360046040518080602001806020018381038352858181548152602001915080548015620001ac57602002820191906000526020600020905b81548152602001906001019080831162000197575b50508381038252848181548152602001915080548015620001ed57602002820191906000526020600020905b815481526020019060010190808311620001d8575b505094505050505060405180910390a15050505062000257565b8154818355818115116200022e576000838152602090206200022e91810190830162000233565b505050565b6200025491905b808211156200025057600081556001016200023a565b5090565b90565b61152f80620002676000396000f3006060604052600436106101ff5763ffffffff60e060020a6000350416625b448781146102045780630519ce791461022957806312508ea41461025857806314d721061461026a57806317ffc3201461027d5780631a0725ce1461029c578063275cb687146102af5780632b16f1ef146102c55780633f4ba83a146102d8578063404823d1146102eb57806349f30178146102fe5780634e0a3379146103115780634e71e0c8146103305780635654a341146103435780635c975abb146103565780635e123ce41461037d5780636103d70b1461039057806363860139146103a35780636cbc2ded146103b657806370dea79a146103c9578063719ce73e146103dc57806377300338146103ef5780638456cb59146104195780638da5cb5b1461042c5780638f5665ce1461043f578063924b573a146104525780639e4734ba14610465578063a001ecdd14610478578063a035b1fe1461048b578063ae06c1b71461049e578063aefaacda146104b4578063b2683aa6146104c7578063c3332732146104da578063cd5ebd93146104f9578063e2982c211461050c578063e30c39781461052b578063e3450e131461053e578063ec30903814610551578063ee4d3c7f14610564578063ee8b39f61461057b578063ef9089d61461058e578063f2fde38b146105a1578063fbb6d9aa146105c0578063fc3fa1ae146105d6575b600080fd5b341561020f57600080fd5b6102176105ec565b60405190815260200160405180910390f35b341561023457600080fd5b61023c6105f2565b604051600160a060020a03909116815260200160405180910390f35b6102686004356024351515610601565b005b341561027557600080fd5b61021761098a565b341561028857600080fd5b610268600160a060020a0360043516610990565b34156102a757600080fd5b610217610a44565b34156102ba57600080fd5b610268600435610a4a565b34156102d057600080fd5b610217610a6a565b34156102e357600080fd5b610268610a70565b34156102f657600080fd5b610217610aef565b341561030957600080fd5b610217610af5565b341561031c57600080fd5b610268600160a060020a0360043516610afb565b341561033b57600080fd5b610268610b5a565b341561034e57600080fd5b610217610be8565b341561036157600080fd5b610369610bee565b604051901515815260200160405180910390f35b341561038857600080fd5b610369610bfe565b341561039b57600080fd5b610268610c07565b34156103ae57600080fd5b610217610c9c565b34156103c157600080fd5b610268610ca2565b34156103d457600080fd5b610217610cb7565b34156103e757600080fd5b610217610cbd565b34156103fa57600080fd5b6102686024600480358281019290820135918135918201910135610cc3565b341561042457600080fd5b610268610d73565b341561043757600080fd5b61023c610df7565b341561044a57600080fd5b610217610e06565b341561045d57600080fd5b610217610e0c565b341561047057600080fd5b610217610e12565b341561048357600080fd5b610217610e18565b341561049657600080fd5b610217610e1e565b34156104a957600080fd5b610268600435610e24565b34156104bf57600080fd5b610217610e53565b34156104d257600080fd5b610217610e59565b34156104e557600080fd5b610268600435602435604435606435610e5f565b341561050457600080fd5b610217610ee3565b341561051757600080fd5b610217600160a060020a0360043516610f7c565b341561053657600080fd5b61023c610f8e565b341561054957600080fd5b61023c610f9d565b341561055c57600080fd5b610369610fb1565b610268600480359060248035908101910135611030565b341561058657600080fd5b610268611106565b341561059957600080fd5b610217611188565b34156105ac57600080fd5b610268600160a060020a036004351661118e565b34156105cb57600080fd5b6102176004356111d8565b34156105e157600080fd5b6102176004356111f7565b60115481565b600254600160a060020a031681565b600080600080600080610612611205565b5060055460ff1615156106e85760015460a060020a900460ff161561063657600080fd5b61063e610fb1565b151561064957600080fd5b86151561065557600080fd5b60155460148190556008546007819055600a546009819055600c54600b8190556005805460ff19166001179055600d54600160a060020a0333169490937f66b384727c80ef79d3afc756bd34a2cece33e1ee0fd8cdf907425471ec831675934293604051808681526020018581526020018481526020018381526020018281526020019550505050505060405180910390a35b861561071f57600d5488148061070f5750600d5461070d89600163ffffffff61132516565b145b151561071a57600080fd5b61072d565b600d54881461072d57600080fd5b60145434101561073c57600080fd5b610766620186a061075a60125460145461133f90919063ffffffff16565b9063ffffffff61136a16565b9550610786620186a061075a60135460145461133f90919063ffffffff16565b94506001600f5403600f54600e5481151561079d57fe5b06141561080c576014546107b890600263ffffffff61133f16565b92506107cf6018548461138190919063ffffffff16565b9350600160a060020a03331683156108fc0284604051600060405180830381858888f19350505050151561080257600080fd5b6000601855610842565b610828600f5461075a600260145461133f90919063ffffffff16565b60185490945061083e908563ffffffff61132516565b6018555b61084a610ee3565b6005805474ffffffffffffffffffffffffffffffffffffffff00191661010033600160a060020a0316021790554281016006556014549092506108b6906108a790869061089b90899082908c611381565b9063ffffffff61138116565b6016549063ffffffff61132516565b6016556017546108cc908663ffffffff61132516565b60178190555033600160a060020a0316600e54600d547f0d979791267d428f9308543772004e58b9af4d5439f179aeb3a5fbbdeccf09e6426006546016546017546040518085815260200184815260200183815260200182815260200194505050505060405180910390a450600e805460010190556014543403600081111561098057600160a060020a03331681156108fc0282604051600060405180830381858888f19350505050151561098057600080fd5b5050505050505050565b600c5481565b6000805433600160a060020a039081169116146109ac57600080fd5b81600160a060020a03166370a082313060006040516020015260405160e060020a63ffffffff8416028152600160a060020a039091166004820152602401602060405180830381600087803b1515610a0357600080fd5b6102c65a03f11515610a1457600080fd5b5050506040518051600054909250610a409150600160a060020a0384811691168363ffffffff61139316565b5050565b600e5481565b60025433600160a060020a03908116911614610a6557600080fd5b601355565b60135481565b60005433600160a060020a03908116911614610a8b57600080fd5b60015460a060020a900460ff161515610aa357600080fd5b6001805474ff0000000000000000000000000000000000000000191690557f7805862f689e2f13df9f062ff482ad3ad112aca9e0847911ed832e158c525b3360405160405180910390a1565b60185481565b600a5481565b60005433600160a060020a03908116911614610b1657600080fd5b600160a060020a0381161515610b2b57600080fd5b6002805473ffffffffffffffffffffffffffffffffffffffff1916600160a060020a0392909216919091179055565b60015433600160a060020a03908116911614610b7557600080fd5b600154600054600160a060020a0391821691167f8be0079c531659141344cd1fd0a4f28419497f9722a3daafe3b4186f6b6457e060405160405180910390a3600180546000805473ffffffffffffffffffffffffffffffffffffffff19908116600160a060020a03841617909155169055565b600d5481565b60015460a060020a900460ff1681565b60055460ff1681565b33600160a060020a038116600090815260106020526040902054801515610c2d57600080fd5b600160a060020a0330163181901015610c4557600080fd5b601154610c58908263ffffffff61138116565b601155600160a060020a0382166000818152601060205260408082209190915582156108fc0290839051600060405180830381858888f193505050501515610a4057fe5b60175481565b610caa611205565b1515610cb557600080fd5b565b60075481565b60165481565b60025433600160a060020a03908116911614610cde57600080fd5b610cea600385856114a5565b50610cf7600483836114a5565b507f72066b1b43a035f4d74a4b5d7edd8c642cddafd0b643c4b0a02e116ea74568b78484848460405160408082528101849052806020808201906060830190889088028082843790910184810383528581526020908101915086908602808284378201915050965050505050505060405180910390a150505050565b60005433600160a060020a03908116911614610d8e57600080fd5b60015460a060020a900460ff1615610da557600080fd5b6001805474ff0000000000000000000000000000000000000000191660a060020a1790557f6985a02210a168e66602d3235cb6db0e70f92b3ba4d376a33c0f3d9434bff62560405160405180910390a1565b600054600160a060020a031681565b600f5481565b60065481565b60085481565b60125481565b60145481565b60025433600160a060020a03908116911614610e3f57600080fd5b610fa0811115610e4e57600080fd5b601255565b60095481565b600b5481565b60025433600160a060020a03908116911614610e7a57600080fd5b60158490556008839055600a829055600c8190557ff70cb6ba9f9de2c7567ba0cec0016cf690a60fed939a2b665107a64df8c6006f848484846040518085815260200184815260200183815260200182815260200194505050505060405180910390a150505050565b600080600080600b54600e54101580610efc5750600b54155b15610f0b576009549350610f76565b60075460095411610f4857600954600754039250610f3a600b5461075a600e548661133f90919063ffffffff16565b915081600754039350610f76565b600754600954039250610f6c600b5461075a600e548661133f90919063ffffffff16565b9050806007540193505b50505090565b60106020526000908152604090205481565b600154600160a060020a031681565b6005546101009004600160a060020a031681565b60035460009062093a8042620545ff19010690825b81811015611026576003805482908110610fdc57fe5b90600052602060002090015483101580156110105750600480548290811061100057fe5b9060005260206000209001548311155b1561101e5760019350610f76565b600101610fc6565b6000935050505090565b611038611205565b50600d54831461104757600080fd5b60055460ff1680611062575060015460a060020a900460ff16155b151561106d57600080fd5b6000341161107a57600080fd5b60165461108d903463ffffffff61132516565b60168190555033600160a060020a0316600d547f974f2bc8adc3d2345a4ec49db194211724c68ac2bf6ba6bd7a222c406b14512f348585601654604051848152604081018290526060602082018181529082018490526080820185858082843782019150509550505050505060405180910390a3505050565b60025460009033600160a060020a0390811691161461112457600080fd5b61114f60185461089b60165461089b60115430600160a060020a03163161138190919063ffffffff16565b600254909150600160a060020a031681156108fc0282604051600060405180830381858888f19350505050151561118557600080fd5b50565b60155481565b60005433600160a060020a039081169116146111a957600080fd5b6001805473ffffffffffffffffffffffffffffffffffffffff1916600160a060020a0392909216919091179055565b60048054829081106111e657fe5b600091825260209091200154905081565b60038054829081106111e657fe5b600554600090819060ff16151561121f5760009150611321565b60065442116112315760009150611321565b6018546016546112469163ffffffff61132516565b600554909150611264906101009004600160a060020a031682611418565b600560019054906101000a9004600160a060020a0316600160a060020a0316600d547f8386778e2c79b776eb88523e711c384da20392327aef66035b67e281b2211147600e54600654856017546040518085815260200184815260200183815260200182815260200194505050505060405180910390a36005805474ffffffffffffffffffffffffffffffffffffffffff1916905560006006819055600e81905560188190556017805460165555600d8054600190810190915591505b5090565b60008282018381101561133457fe5b8091505b5092915050565b6000808315156113525760009150611338565b5082820282848281151561136257fe5b041461133457fe5b600080828481151561137857fe5b04949350505050565b60008282111561138d57fe5b50900390565b82600160a060020a031663a9059cbb838360006040516020015260405160e060020a63ffffffff8516028152600160a060020a0390921660048301526024820152604401602060405180830381600087803b15156113f057600080fd5b6102c65a03f1151561140157600080fd5b50505060405180519050151561141357fe5b505050565b600160a060020a03821681156108fc0282604051600060405180830381858888f193505050501515610a4057610a408282600160a060020a038216600090815260106020526040902054611472908263ffffffff61132516565b600160a060020a03831660009081526010602052604090205560115461149e908263ffffffff61132516565b6011555050565b8280548282559060005260206000209081019282156114e0579160200282015b828111156114e05782358255916020019190600101906114c5565b50611321926115009250905b8082111561132157600081556001016114ec565b905600a165627a7a72305820e2d9fb60ed77f26ac6c534048078ffcdc2cbf8de4175755734c5e7118b05d44e0029",
  "source": "pragma solidity ^0.4.19;\n\nimport \"./ChronosFinance.sol\";\n\n/// @dev Defines core Chronos functionality.\ncontract ChronosCore is ChronosFinance {\n    \n    function ChronosCore(uint256 _price, uint256 _timeout, uint256 _finalTimeout, uint256 _numberOfWagersToFinalTimeout) public {\n        nextPrice = _price;\n        nextTimeout = _timeout;\n        nextFinalTimeout = _finalTimeout;\n        nextNumberOfWagersToFinalTimeout = _numberOfWagersToFinalTimeout;\n        NextGame(nextPrice, nextTimeout, nextFinalTimeout, nextNumberOfWagersToFinalTimeout);\n        \n        // Set active time to the entire week.\n        activeTimesFrom.push(0);\n        activeTimesTo.push(604800);\n        ActiveTimes(activeTimesFrom, activeTimesTo);\n    }\n    \n    event ActiveTimes(uint256[] from, uint256[] to);\n    event NextGame(uint256 price, uint256 timeout, uint256 finalTimeout, uint256 numberOfWagersToFinalTimeout);\n    event Start(uint256 indexed gameIndex, address indexed starter, uint256 timestamp, uint256 price, uint256 timeout, uint256 finalTimeout, uint256 numberOfWagersToFinalTimeout);\n    event End(uint256 indexed gameIndex, uint256 wagerIndex, address indexed winner, uint256 timestamp, uint256 prize, uint256 nextPrizePool);\n    event Play(uint256 indexed gameIndex, uint256 indexed wagerIndex, address indexed player, uint256 timestamp, uint256 timeoutTimestamp, uint256 newPrizePool, uint256 nextPrizePool);\n    event SpiceUpPrizePool(uint256 indexed gameIndex, address indexed spicer, uint256 spiceAdded, string message, uint256 newPrizePool);\n    \n    /// @notice Participate in the game.\n    /// @param _gameIndex The index of the game to play on.\n    /// @param startNewGameIfIdle Start a new game if the current game is idle.\n    function play(uint256 _gameIndex, bool startNewGameIfIdle) external payable {\n        // Check to see if the game should end. Process payment.\n        _processGameEnd();\n        \n        if (!gameStarted) {\n            // If the game is not started, the contract must not be paused.\n            require(!paused);\n            \n            // This must be an active time.\n            require(canStart());\n            \n            // If the game is not started, the player must be willing to start\n            // a new game.\n            require(startNewGameIfIdle);\n            \n            // Set the price and timeout.\n            price = nextPrice;\n            timeout = nextTimeout;\n            finalTimeout = nextFinalTimeout;\n            numberOfWagersToFinalTimeout = nextNumberOfWagersToFinalTimeout;\n            \n            // Start the game.\n            gameStarted = true;\n            \n            // Emit start event.\n            Start(gameIndex, msg.sender, block.timestamp, price, timeout, finalTimeout, numberOfWagersToFinalTimeout);\n        }\n        \n        // Check the game index.\n        if (startNewGameIfIdle) {\n            // The given game index must be the current game index, or the previous\n            // game index.\n            require(_gameIndex == gameIndex || _gameIndex.add(1) == gameIndex);\n        } else {\n            // Only play on the game indicated by the player.\n            require(_gameIndex == gameIndex);\n        }\n        \n        // Enough Ether must be supplied.\n        require(msg.value >= price);\n        \n        // Calculate the fees and next pool percentage.\n        uint256 fee = price.mul(feePercentage).div(100000);\n        uint256 nextPool = price.mul(nextPoolPercentage).div(100000);\n        uint256 wagerPoolPart;\n        \n        if (wagerIndex % nthWagerPrizeN == nthWagerPrizeN - 1) {\n            // Give the wager prize every nth wager.\n            \n            // Calculate total nth wager prize.\n            uint256 wagerPrize = price.mul(2);\n            \n            // Calculate the missing wager pool part (equal to price.mul(2).div(nthWagerPrizeN) plus a few wei).\n            wagerPoolPart = wagerPrize.sub(wagerPool);\n        \n            // Give the wager prize to the sender.\n            msg.sender.transfer(wagerPrize);\n            \n            // Reset the wager pool.\n            wagerPool = 0;\n        } else {\n            // On every non-nth wager, increase the wager pool.\n            \n            // Calculate the wager pool part.\n            wagerPoolPart = price.mul(2).div(nthWagerPrizeN);\n            \n            // Add funds to the wager pool.\n            wagerPool = wagerPool.add(wagerPoolPart);\n        }\n        \n        // Calculate the timeout.\n        uint256 currentTimeout = calculateTimeout();\n        \n        // Set the last player, timestamp, timeout timestamp, and increase prize.\n        lastPlayer = msg.sender;\n        lastWagerTimeoutTimestamp = block.timestamp + currentTimeout;\n        prizePool = prizePool.add(price.sub(fee).sub(nextPool).sub(wagerPoolPart));\n        nextPrizePool = nextPrizePool.add(nextPool);\n        \n        // Emit event.\n        Play(gameIndex, wagerIndex, msg.sender, block.timestamp, lastWagerTimeoutTimestamp, prizePool, nextPrizePool);\n        \n        // Increment the wager index. This won't overflow before the heat death of the universe.\n        wagerIndex++;\n        \n        // Refund any excess Ether sent.\n        // This subtraction never underflows, as msg.value is guaranteed\n        // to be greater than or equal to price.\n        uint256 excess = msg.value - price;\n        \n        if (excess > 0) {\n            msg.sender.transfer(excess);\n        }\n    }\n    \n    /// @notice Spice up the prize pool.\n    /// @param _gameIndex The index of the game to add spice to.\n    /// @param message An optional message to be sent along with the spice.\n    function spiceUp(uint256 _gameIndex, string message) external payable {\n        // Check to see if the game should end. Process payment.\n        _processGameEnd();\n        \n        // Check the game index.\n        require(_gameIndex == gameIndex);\n    \n        // Game must be live or unpaused.\n        require(gameStarted || !paused);\n        \n        // Funds must be sent.\n        require(msg.value > 0);\n        \n        // Add funds to the prize pool.\n        prizePool = prizePool.add(msg.value);\n        \n        // Emit event.\n        SpiceUpPrizePool(gameIndex, msg.sender, msg.value, message, prizePool);\n    }\n    \n    /// @notice Set the parameters for the next game.\n    /// @param _price The price of wagers for the next game.\n    /// @param _timeout The timeout in seconds for the next game.\n    /// @param _finalTimeout The final timeout in seconds for\n    /// the next game.\n    /// @param _numberOfWagersToFinalTimeout The number of wagers\n    /// required to move to the final timeout for the next game.\n    function setNextGame(uint256 _price, uint256 _timeout, uint256 _finalTimeout, uint256 _numberOfWagersToFinalTimeout) external onlyCFO {\n        nextPrice = _price;\n        nextTimeout = _timeout;\n        nextFinalTimeout = _finalTimeout;\n        nextNumberOfWagersToFinalTimeout = _numberOfWagersToFinalTimeout;\n        NextGame(nextPrice, nextTimeout, nextFinalTimeout, nextNumberOfWagersToFinalTimeout);\n    } \n    \n    /// @notice End the game. Pay prize.\n    function endGame() external {\n        require(_processGameEnd());\n    }\n    \n    /// @dev End the game. Pay prize.\n    function _processGameEnd() internal returns(bool) {\n        if (!gameStarted) {\n            // No game is started.\n            return false;\n        }\n    \n        if (block.timestamp <= lastWagerTimeoutTimestamp) {\n            // The game has not yet finished.\n            return false;\n        }\n        \n        // Calculate the prize. Any leftover funds for the\n        // nth wager prize is added to the prize pool.\n        uint256 prize = prizePool.add(wagerPool);\n        \n        // The game has finished. Pay the prize to the last player.\n        _sendFunds(lastPlayer, prize);\n        \n        // Emit event.\n        End(gameIndex, wagerIndex, lastPlayer, lastWagerTimeoutTimestamp, prize, nextPrizePool);\n        \n        // Reset the game.\n        gameStarted = false;\n        lastPlayer = 0x0;\n        lastWagerTimeoutTimestamp = 0;\n        wagerIndex = 0;\n        wagerPool = 0;\n        \n        // The next pool is any leftover balance minus outstanding balances.\n        prizePool = nextPrizePool;\n        nextPrizePool = 0;\n        \n        // Increment the game index. This won't overflow before the heat death of the universe.\n        gameIndex++;\n        \n        // Indicate ending the game was successful.\n        return true;\n    }\n    \n    /// @notice Set the active times.\n    function setActiveTimes(uint256[] _from, uint256[] _to) external onlyCFO {\n        activeTimesFrom = _from;\n        activeTimesTo = _to;\n        \n        // Emit event.\n        ActiveTimes(_from, _to);\n    }\n}\n",
  "sourcePath": "G:\\Programming\\crypto\\chronos\\contracts\\contracts\\ChronosCore.sol",
  "compiler": {
    "name": "solc",
    "version": "0.4.19+commit.c4cbbb05.Emscripten.clang"
  },
  "schemaVersion": "2.0.0",
  "updatedAt": "2018-03-28T02:34:49.441Z"
}